:020000040000FA
:04000000FEEFFFF020
:020000040001F9
:10FF0F0080120012001200800EBE6E000EC66E0030
:10FF1F000E0401006F1200000E096E000E0A6E0033
:10FF2F000E0B6E000E0C6E000E056E000E066E00B0
:10FF3F000E076E000E086E1200048E88ECFFF09311
:10FF4F00ECFFF08BECFFF08AECFFF0C8ECFFF089D0
:10FF5F00ECFFF0ADEFFFF0FEEFFFF00F0EF66EFFD0
:10FF6F000EF76E010EF86E09006100D4F316F5015D
:10FF7F00EE01F10D0EEE6AE806FDE10001A4EFFFC0
:10FF8F00F0000E0E6E090E0F6E3D0E106E000E116C
:10FF9F006E1628D8A4D6EFFFF0D8EFFFF0DAEFFFF8
:10FFAF00F0800E166E162A610058F4BEF4000E1281
:10FFBF006E000E136E000E146E000E156EEEEFFF38
:10FFCF00F0010E1226000E1322142215220E5012CB
:10FFDF005C0F5013581050145811501558D8A0FBDF
:10FFEF00EFFFF0FDEFFFF0E8EFFFF01200B5EFFFCE
:01FFFF00F011
:020000040020DA
:10000000FF0FFF0FFF0FFF0FFF0FFF0FFF0FFF0F80
:10001000FF0FFF0FFF0FFF0FFF0FFF0FFF0FFF0F70
:020000040030CA
:0A0000008CFEFFFC9FFFFFFFFFFFD7
:00000001FF
