:020000040000FA
:04000000FEEFFFF020
:020000040001F9
:10FF290080120012001200800EBE6E000EC66E0016
:10FF39000E0401006F1200000E096E000E0A6E0019
:10FF49000E0B6E000E0C6E000E056E000E066E0096
:10FF59000E076E000E086E1200048E95ECFFF0A0DD
:10FF6900ECFFF098ECFFF097ECFFF0D5ECFFF09682
:10FF7900ECFFF0BAEFFFF0FEEFFFF0290EF66EFF8F
:10FF89000EF76E010EF86E09006100D4F312F50147
:10FF9900EE01F10D0EEE6AE806FDE10001B1EFFF99
:10FFA900F01228D8A4DBEFFFF0DDEFFFF0DFEFFF61
:10FFB900F0800E126E610048F4BEF4122A000E0E93
:10FFC9006E710E0F6E020E106E000E116EF2EFFFC3
:10FFD900F00E06000E0F5A105A115A0E500F10103B
:10FFE900101110D8A4FBEFFFF0FDEFFFF0EDEFFFCC
:07FFF900F01200C2EFFFF05F
:020000040020DA
:10000000FF0FFF0FFF0FFF0FFF0FFF0FFF0FFF0F80
:10001000FF0FFF0FFF0FFF0FFF0FFF0FFF0FFF0F70
:020000040030CA
:0A0000008CFEFFFC9FFFFFFFFFFFD7
:00000001FF
