:020000040000FA
:04000000FEEFFFF020
:020000040001F9
:10FF120012001200120080000000800EBE6E000E61
:10FF2200C66E200EC76E000E0401006F000E086F31
:10FF32001200000E096E000E0A6E000E0B6E000E0D
:10FF42000C6E000E056E000E066E000E076E000EA1
:10FF5200086E1200048E89ECFFF09AECFFF08EEC32
:10FF6200FFF08BECFFF0D5ECFFF08AECFFF0B4EF82
:10FF7200FFF0FEEFFFF0180EF66EFF0EF76E010EA9
:10FF8200F86E01EE0EF110EE04F00900F5C4EEF485
:10FF9200E550E150FAE101EE01F10D0EEE6AE806DC
:10FFA200FDE10001ABEFFFF0CFAADAEFFFF0DCEFEB
:10FFB200FFF0FDEFFFF0010E0E26000E0F221022C1
:10FFC2001122610038F4BEF4CFBAEAEFFFF0EDEF90
:10FFD200FFF0010EEEEFFFF0000E126E136A010E3B
:10FFE200121A000E131A12501310D8B4FBEFFFF0BE
:0EFFF200FDEFFFF0E5EFFFF01200BCEFFFF0B7
:020000040020DA
:10000000FF0FFF0FFF0FFF0FFF0FFF0FFF0FFF0F80
:10001000FF0FFF0FFF0FFF0FFF0FFF0FFF0FFF0F70
:020000040030CA
:0A0000008CFEFFFC9FFFFFFFFFFFD7
:00000001FF
