:020000040000FA
:0400000081EF00F09C
:1000080081016901690169014000690140006901D4
:100018006901690169016901690169016901690188
:1000280069014000400040006901690169016901F6
:100038006901690169017A0132016901690169018E
:1000480069016901690169014000400069016901AC
:100058006901690169014000690169016901690172
:100068006901690169016901690169016901690138
:100078006901690169016901400069016901690152
:100088006901690169016901690169016901690118
:100098006901690169016901400069014000400086
:1000A80069016901690169016901690169016901F8
:1000B80069016901690169016901690169016901E8
:1000C80069016901690169016901690169016901D8
:1000D80069016901690169016901690169016901C8
:1000E800400069016901690140004000400040008A
:1000F8006901690169016901FF0099EF01F021EEC9
:1001080060F111EE00F25B0EDBC4E3F4E806FCE2FA
:1001180021EE00F311EE5CF25B0EDBC4E3F4E806BB
:10012800FCE20601BC51020D000EF324D96E060E46
:10013800F420DA6E610078F312F5610074F313F5B8
:10014800010E146E3AEC02F0000E0601B96F000EB3
:10015800B86FBC51020D5C0EF324D96E060EF42064
:10016800DA6E610078F312F5610074F313F5B3ECFD
:1001780002F0B1AEC2EF00F0C4EF00F0BDEF00F046
:100188000601B84BB92BB9BFD3EF00F0C20EB85D6A
:10019800010EB959D8A0D3EF00F0D5EF00F0ADEFBC
:1001A80000F0000E136E000E126E010E146E3AEC83
:1001B80002F0000E0601BB6F000EBA6FBC51020DB3
:1001C8005C0EF324D96E060EF420DA6E610078F323
:1001D80012F5610074F313F5B3EC02F0B1AEF7EF6A
:1001E80000F0F9EF00F0F2EF00F00601BA4BBB2B7C
:1001F800BBBF08EF01F0C20EBA5D010EBB59D8A013
:1002080008EF01F00AEF01F0E2EF00F02D0EBC65F7
:1002180010EF01F012EF01F016EF01F0000EBC6FC5
:1002280018EF01F0BC29BC6F1200808386898C8F7F
:100238009295989B9EA2A5A7AAADB0B3B6B9BCBE2D
:10024800C1C4C6C9CBCED0D3D5D7DADCDEE0E2E470
:10025800E6E8EAEBEDEEF0F1F3F4F5F6F8F9FAFA80
:10026800FBFCFDFDFEFEFEFFFFFFFFFFFFFFFEFEA6
:10027800FEFDFDFCFBFAFAF9F8F6F5F4F3F1F0EE01
:10028800EDEBEAE8E6E4E2E0DEDCDAD7D5D3D0CE7F
:10029800CBC9C6C4C1BEBCB9B6B3B0ADAAA7A5A2E6
:1002A8009E9B9895928F8C898683807C79767370D3
:1002B8006D6A6764615D5A5855524F4C49464341CF
:1002C8003E3B393634312F2C2A282523211F1D1B6C
:1002D8001917151412110F0E0C0B0A09070605053C
:1002E80004030202010101000000000000000101F6
:1002F800010202030405050607090A0B0C0E0F117B
:1003080012141517191B1D1F212325282A2C2F31DC
:100318003436393B3E414346494C4F5255585A5D55
:100328006164676A6D707376797C320EF66E020EC0
:10033800F76E000EF86E02EE00F010EE00F1090004
:10034800F5C4EEF4E550E150FAE1E250F8E1180E98
:10035800F66E040EF76E000EF86E01EE00F310EE66
:100368005CF00900F5C4EEF4E550E150FAE1BC0E8A
:10037800F66E030EF76E000EF86E01EE60F110EEE9
:100388005CF00900F5C4EEF4E550E150FAE106012D
:10039800BD6BBC6B01EE01F1100EEE6AE806FDE1E3
:1003A8000401080E5D6F000E5E6F000E5F6F0001A6
:1003B8009BEF02F02F002F002D00280028002D00B1
:1003C8002F0035003C003C0035002F002F00350081
:1003D80035002F002F002D00280028002D002F00A9
:1003E80035003C003C0035002F0035003C003C0047
:1003F80035002F003C0035002F002D002F003C0059
:1004080035002F002D002F0035003C0035004F002F
:1004180000020002000200020002000200020002C4
:1004280000020002000200020004000100080002AD
:1004380000020002000200020002000200020002A4
:10044800000200020002000400010008000400028B
:100458000002000200010001000200020002000187
:1004680000010002000200020002000403011E91C4
:10047800800E135CD8A043EF02F045EF02F048EF7E
:1004880002F07F0E136E1268121C156E131C166E86
:1004980016500F6E15C50EF561003CF41DF3610092
:1004A80038F41CF310901450D8B45DEF02F05FEFED
:1004B80002F060EF02F01080B198A1881E8112004E
:1004C80061003CF41DF3610038F41CF3000E0D24A8
:1004D800D96EDA6A080EDA22DF5000017D6F040E49
:1004E8000D26B19810B07BEF02F07DEF02F080EF9F
:1004F80002F0A19803011E911100000E096E000E72
:100508000A6E000E0B6E000E0C6E000E056E000ECD
:10051800066E000E076E000E086E7D0E0301236F37
:10052800010E266FB196F00E246FA1861200060107
:10053800BD8F04EC03F0DFEC02F0FEEC02F081EC7E
:1005480002F0C3EC02F00601BD9F83EC00F0BE9EF2
:10055800EAEC02F0BE8EA9EF02F081EF00F0146819
:10056800156803011A9F1250145E1350155A15503E
:10057800196F610050F418F3B19E1A8F1200C00E63
:10058800BE16900E03011A6F540E1B6F000E1F6FDC
:0A059800010E216F310E1E6F1200DC
:1005A400610060F311F5010E0126000E0222032200
:1005B4000422610044F4D8F41100000E0401006F19
:1005C400000EC66EA00E00017F6F000E7D6F12003C
:1005D4000601BD8DBDBDF1EF02F0F3EF02F0ECEFCB
:1005E40002F01200B1960601BD9D010E0926000E0F
:1005F4000A220B220C221100D68AD68ED68C120027
:06060400AE90110012008F
:020000040020DA
:10000000FF0FFF0FFF0FFF0FFF0FFF0FFF0FFF0F80
:10001000FF0FFF0FFF0FFF0FFF0FFF0FFF0FFF0F70
:020000040030CA
:0A0000008CFEFFFC9FFFFFFFFFFFD7
:00000001FF
