:020000040000FA
:04000000FEEFFFF020
:020000040001F9
:04FEC000120012001A
:10FEC5002010080402010204081020900E03011AF4
:10FED5006F540E1B6F1200000EC66E000E0401005B
:10FEE5006F800EBE6E1200100E03011A6F0F1C11EB
:10FEF5006E101C126E1250196F000E186FB19E9085
:10FF05000E1A6F1200000E096E000E0A6E000E0B1F
:10FF15006E000E0C6E000E056E000E066E000E07CE
:10FF25006E000E086E1200C50EF66EFE0EF76E011F
:10FF35000EF86E01EE1CF110EE0BF00900F5C4EEA3
:10FF4500F4E550E150FAE101EE01F10E0EEE6AE83A
:10FF550006FDE10001D1EFFFF021EE1CF111EE0FDE
:10FF6500F10A0EDBC4E3F4E806FCE20A0E0D64BEFA
:10FF7500EFFFF0C0EFFFF0C2EFFFF0000E0D6EBE19
:10FF850050C00B1B6E0F0E0D24D96EDA6A050EDA02
:10FF950022DF501B10BE6E0D280D6E1200048E6000
:10FFA500ECFFF085ECFFF06EECFFF068ECFFF0AFD6
:10FFB500ECFFF0BE9E61ECFFF0750E106E300E0F7B
:10FFC5006E76ECFFF0B1AEEAEFFFF0ECEFFFF0E597
:10FFD500EFFFF0BE8E750E106E300E0F6E76ECFFD5
:10FFE500F0B1AEF8EFFFF0FAEFFFF0F3EFFFF0DA64
:0BFFF500EFFFF0FEEFFFF096EFFFF0D3
:020000040020DA
:10000000FF0FFF0FFF0FFF0FFF0FFF0FFF0FFF0F80
:10001000FF0FFF0FFF0FFF0FFF0FFF0FFF0FFF0F70
:020000040030CA
:0A0000008CFEFFFC9FFFFFFFFFFFD7
:00000001FF
