:020000040000FA
:04000000FEEFFFF020
:020000040001F9
:10FEF7008012001200900E03011A6F540E1B6F122E
:10FF070000000EC66E000E0401006F800EBE6E125A
:10FF170000100E03011A6F0E1C106E0F1C116E11CC
:10FF270050196F000E186FB19E900E1A6F120000D5
:10FF37000E096E000E0A6E000E0B6E000E0C6E00A0
:10FF47000E056E000E066E000E076E000E086E128E
:10FF5700001228D8A4B2EFFFF0B4EFFFF0B8EFFF1C
:10FF6700F0800E126EBAEFFFF01228126E61004891
:10FF7700F4BEF41200F70EF66EFE0EF76E010EF8E1
:10FF87006E09006100D4F312F501EE01F10D0EEEDA
:10FF97006AE806FDE10001D1EFFFF0048E7CECFF7B
:10FFA700F09BECFFF084ECFFF07EECFFF0ACECFF95
:10FFB700F0BE9E7DECFFF0EA0E0F6E600E0E6E8CAB
:10FFC700ECFFF0B1AEEAEFFFF0ECEFFFF0E5EFFF8B
:10FFD700F0BE8EEA0E0F6E600E0E6E8CECFFF0B167
:10FFE700AEF8EFFFF0FAEFFFF0F3EFFFF0DAEFFF15
:09FFF700F0FEEFFFF0BEEFFFF099
:020000040020DA
:10000000FF0FFF0FFF0FFF0FFF0FFF0FFF0FFF0F80
:10001000FF0FFF0FFF0FFF0FFF0FFF0FFF0FFF0F70
:020000040030CA
:0A0000008CFEFFFC9FFFFFFFFFFFD7
:00000001FF
