:020000040000FA
:04000000FEEFFFF020
:020000040001F9
:10FF2A0012001200900E03011A6F540E1B6F12007A
:10FF3A00000EC66E000E0401006F800EBE6E120027
:10FF4A006100F8F20EF50E280E6E610038F4BEF468
:10FF5A00120001EE01F10D0EEE6AE806FDE1000164
:10FF6A00DCEFFFF0000E096E000E0A6E000E0B6E3B
:10FF7A00000E0C6E000E056E000E066E000E076E69
:10FF8A00000E086E120003011A517F0B1A6F0E1C25
:10FF9A00106E0F1C116E1150196F610040F418F3A6
:10FFAA00B1507F0BB16E1A5180091A6F1200048E7C
:10FFBA0095ECFFF0B7ECFFF09DECFFF097ECFFF04B
:10FFCA00A5ECFFF0BE9E96ECFFF0030E0F6EE80E56
:10FFDA000E6EC8ECFFF0800EB118D8A4F7EFFFF050
:10FFEA00F9EFFFF0F0EFFFF0BE8EE5EFFFF0FEEF66
:06FFFA00FFF0AEEFFFF086
:020000040020DA
:10000000FF0FFF0FFF0FFF0FFF0FFF0FFF0FFF0F80
:10001000FF0FFF0FFF0FFF0FFF0FFF0FFF0FFF0F70
:020000040030CA
:0A0000008CFEFFFC9FFFFFFFFFFFD7
:00000001FF
