:020000040000FA
:04000000FEEFFFF020
:020000040001F9
:10FF160012001200900E03011A6F540E1B6F12008E
:10FF2600000EC66E000E0401006F800EBE6E12003B
:10FF360001EE01F10D0EEE6AE806FDE10001DCEFCF
:10FF4600FFF0000E096E000E0A6E000E0B6E000E1C
:10FF56000C6E000E056E000E066E000E076E000E8D
:10FF6600086E1200100E03011A6F0E1C106E0F1C85
:10FF7600116E1150196F610040F418F3B1507F0BE8
:10FF8600B16E900E1A6F12006100F8F20EF50E288F
:10FF9600D8A4D0EFFFF0D2EFFFF0D6EFFFF0800E3F
:10FFA6000E6ED8EFFFF00E280E6E610038F4BEF428
:10FFB6001200048E8BECFFF0A4ECFFF093ECFFF044
:10FFC6008DECFFF0C7ECFFF0BE9E8CECFFF0030E4D
:10FFD6000F6EE80E0E6EB5ECFFF0800EB118D8A4C9
:10FFE600F7EFFFF0F9EFFFF0F0EFFFF0BE8EE5EF71
:0AFFF600FFF0FEEFFFF09BEFFFF0BD
:020000040020DA
:10000000FF0FFF0FFF0FFF0FFF0FFF0FFF0FFF0F80
:10001000FF0FFF0FFF0FFF0FFF0FFF0FFF0FFF0F70
:020000040030CA
:0A0000008CFEFFFC9FFFFFFFFFFFD7
:00000001FF
