:020000040000FA
:04000000FEEFFFF020
:020000040001F9
:10FF3B008012001200100E03011A6F000E1B6F12BD
:10FF4B0000800EBE6E000EC66E000E0401006F1216
:10FF5B0000000E096E000E0A6E000E0B6E000E0CEA
:10FF6B006E000E056E000E066E000E076E000E087C
:10FF7B006E1200048E9EECFFF0AEECFFF0A6ECFFD1
:10FF8B00F0A0ECFFF0E3ECFFF09FECFFF0C8EFFF0D
:10FF9B00F0FEEFFFF03B0EF66EFF0EF76E010EF864
:10FFAB006E09006100D4F30EF501EE01F10D0EEEBA
:10FFBB006AE806FDE10001BFEFFFF00E28D8A4E9C7
:10FFCB00EFFFF0EBEFFFF0F9EFFFF0000E0F6E0E0F
:10FFDB0050D8B4F3EFFFF0F5EFFFF0F7EFFFF001C0
:10FFEB000E0F6E0FC50EF5610038F4BEF40E2A121B
:05FFFB0000D0EFFFF053
:020000040020DA
:10000000FF0FFF0FFF0FFF0FFF0FFF0FFF0FFF0F80
:10001000FF0FFF0FFF0FFF0FFF0FFF0FFF0FFF0F70
:020000040030CA
:0A0000008CFEFFFC9FFFFFFFFFFFD7
:00000001FF
