:020000040000FA
:0400000081EF00F09C
:100008007D016501650165014000650140006501EC
:1000180065016501650165016501650165016501A8
:10002800650140004000400065016501650165010A
:1000380065016501650176012E01650165016501AE
:1000480065016501650165014000400065016501C4
:10005800650165016501400065016501650165018E
:100068006501650165016501650165016501650158
:10007800650165016501650140006501650165016E
:100088006501650165016501650165016501650138
:10009800650165016501650140006501400040009A
:1000A8006501650165016501650165016501650118
:1000B8006501650165016501650165016501650108
:1000C80065016501650165016501650165016501F8
:1000D80065016501650165016501650165016501E8
:1000E8004000650165016501400040004000400096
:1000F8006501650165016501FF0099EF01F021EED9
:1001080060F111EE00F2530EDBC4E3F4E806FCE202
:1001180021EE00F311EE54F2530EDBC4E3F4E806CB
:10012800FCE20601AC51020D000EF324D96E060E56
:10013800F420DA6E610078F312F5610074F313F5B8
:10014800010E146E32EC02F0000E0601A96F000ECB
:10015800A86FAC51020D540EF324D96E060EF4208C
:10016800DA6E610078F312F5610074F313F5ABEC05
:1001780002F0B1AEC2EF00F0C4EF00F0BDEF00F046
:100188000601A84BA92BA9BFD3EF00F0E80EA85D84
:10019800030EA959D8A0D3EF00F0D5EF00F0ADEFCA
:1001A80000F0000E136E000E126E010E146E32EC8B
:1001B80002F0000E0601AB6F000EAA6FAC51020DE3
:1001C800540EF324D96E060EF420DA6E610078F32B
:1001D80012F5610074F313F5ABEC02F0B1AEF7EF72
:1001E80000F0F9EF00F0F2EF00F00601AA4BAB2B9C
:1001F800ABBF08EF01F0E80EAA5D030EAB59D8A01B
:1002080008EF01F00AEF01F0E2EF00F0290EAC650B
:1002180010EF01F012EF01F016EF01F0000EAC6FD5
:1002280018EF01F0AC29AC6F1200808386898C8F9F
:100238009295989B9EA2A5A7AAADB0B3B6B9BCBE2D
:10024800C1C4C6C9CBCED0D3D5D7DADCDEE0E2E470
:10025800E6E8EAEBEDEEF0F1F3F4F5F6F8F9FAFA80
:10026800FBFCFDFDFEFEFEFFFFFFFFFFFFFFFEFEA6
:10027800FEFDFDFCFBFAFAF9F8F6F5F4F3F1F0EE01
:10028800EDEBEAE8E6E4E2E0DEDCDAD7D5D3D0CE7F
:10029800CBC9C6C4C1BEBCB9B6B3B0ADAAA7A5A2E6
:1002A8009E9B9895928F8C898683807C79767370D3
:1002B8006D6A6764615D5A5855524F4C49464341CF
:1002C8003E3B393634312F2C2A282523211F1D1B6C
:1002D8001917151412110F0E0C0B0A09070605053C
:1002E80004030202010101000000000000000101F6
:1002F800010202030405050607090A0B0C0E0F117B
:1003080012141517191B1D1F212325282A2C2F31DC
:100318003436393B3E414346494C4F5255585A5D55
:100328006164676A6D707376797C320EF66E020EC0
:10033800F76E000EF86E02EE00F010EE00F1090004
:10034800F5C4EEF4E550E150FAE1E250F8E1100EA0
:10035800F66E040EF76E000EF86E01EE00F310EE66
:1003680054F00900F5C4EEF4E550E150FAE1BC0E92
:10037800F66E030EF76E000EF86E01EE60F110EEE9
:1003880054F00900F5C4EEF4E550E150FAE1060135
:10039800AD6BAC6B01EE01F1100EEE6AE806FDE103
:1003A8000401080E5D6F000E5E6F000E5F6F0001A6
:1003B80093EF02F03C003C002800280024002400B1
:1003C80028002D002D002F002F00350035003C009F
:1003D800280028002D002D002F002F0035002800B0
:1003E80028002D002D002F002F0035003C003C0078
:1003F800280028002400240028002D002D002F00AC
:100408002F00350035003C00000200020002000207
:1004180000020002000400020002000200020002C2
:1004280000020004000200020002000200020002B2
:1004380000040002000200020002000200020004A0
:100448000002000200020002000200020004000292
:1004580000020002000200020002000803011E91CF
:10046800800E135CD8A03BEF02F03DEF02F040EFA6
:1004780002F07F0E136E1268121C156E131C166E96
:1004880016500F6E15C50EF561003CF41DF36100A2
:1004980038F41CF310901450D8B455EF02F057EF0D
:1004A80002F058EF02F01080B198A1881E81120066
:1004B80061003CF41DF3610038F41CF3000E0D24B8
:1004C800D96EDA6A080EDA22DF5000017D6F040E59
:1004D8000D26B19810B073EF02F075EF02F078EFC7
:1004E80002F0A19803011E911100000E096E000E82
:1004F8000A6E000E0B6E000E0C6E000E056E000EDE
:10050800066E000E076E000E086E7D0E0301236F47
:10051800010E266FB196F00E246FA1861200060117
:10052800AD8FFCEC02F0D7EC02F0F6EC02F079ECBF
:1005380002F0BBEC02F00601AD9F83EC00F0BE9E1A
:10054800E2EC02F0BE8EA1EF02F081EF00F0146839
:10055800156803011A9F1250145E1350155A15504E
:10056800196F610050F418F3B19E1A8F1200C00E73
:10057800BE16900E03011A6F540E1B6F000E1F6FEC
:0A058800010E216F310E1E6F1200EC
:10059400610060F311F5010E0126000E0222032210
:1005A4000422610044F4D8F41100000E0401006F29
:1005B400000EC66EA00E00017F6F000E7D6F12004C
:1005C4000601AD8DADBDE9EF02F0EBEF02F0E4EF13
:1005D40002F01200B1960601AD9D010E0926000E2F
:1005E4000A220B220C221100D68AD68ED68C120037
:0605F400AE9011001200A0
:020000040020DA
:10000000FF0FFF0FFF0FFF0FFF0FFF0FFF0FFF0F80
:10001000FF0FFF0FFF0FFF0FFF0FFF0FFF0FFF0F70
:020000040030CA
:0A0000008CFEFFFC9FFFFFFFFFFFD7
:00000001FF
